:100000000C9430040C9461040C9461040C9461040D
:100010000C9461040C9461040C9461040C946104CC
:100020000C9461040C94BF1F0C94BF1F0C94BF1F51
:100030000C9461040C9461040C9461040C946104AC
:100040000C9461040C9461040C9461040C9461049C
:100050000C9461040C9474100C9461040C94131DA2
:100060000C9461040C94751A0C944B1A0C94610452
:100070000C9461040C9461040C9461040C9461046C
:100080000C9461040C9461040C9461040C9461045C
:100090000C94211A0C94F7190C9461040C94EA1234
:1000A0000C9461040C9461040C9461040C9461043C
:1000B0000C9461040C9461040C9461040C9461042C
:1000C0000C9461040C9461040C9461040C9461041C
:1000D0000C9461040C9461040C9461040C9461040C
:1000E0000C946104F41AF91AFE1A081B121B8B1BDC
:1000F0001C1B241B2C1B361B401B4A1B591B631B40
:100100008B1B6D1B771B811B641E671E561E5A1EA0
:10011000601E9E1E6B1E6F1E751E791E7D1E831E29
:10012000871E8B1E9E1E911E951E991E0C946304A5
:100130000C94D3100C9434170C9475110C942C1B44
:100140000C94B6110C945D110C94E01C0C94951E4B
:100150000C948B1B0C94081B0C9469110C94591B68
:100160000C94F41A0C94871E0C94771B0C94121B9D
:100170000C94F91A0C944A1B0C94631B0C942E12C9
:100180000C94561E0C9446160C94D9150C94281EEB
:100190000C94D2100C94401B0C94101E0C949E1EB8
:1001A0000C94831E0C94A31D0C945A1E0C94721F65
:1001B0000C94811B0C94991E0C948B1E0C9434246B
:1001C0000C946D1B0C947D1E0C949E160C948A1638
:1001D0000C94601E0C94BC1D0C949F1E0C94641E09
:1001E0000C94751E0C94F6100C94E2100C94AC1642
:1001F0000C94A31B0C94911E0C942E110C94FE1ABB
:100200000C94F8110C94791E0C946F1E0C94671EBC
:100210000C9481110C94241B0C941C1B0C946B1ECD
:100220000C94B2170C94BB1D0C94361B0C94ED1659
:100230000C94EA290C94FE10636F6D6D616E64007E
:10024000636F6D6D616E640052756E6E696E6720CE
:10025000436F6D6D616E6420436865636B65722EDC
:100260002E2E000A3C2D20000A3C2D20002B2B2B8B
:10027000002B2B2B0068656164206C6967687473C0
:10028000206F666600684C696768744F66662F0069
:10029000686561644C696768744F6E00684C696793
:1002A00068744F6E2F0064656275676F66662F0015
:1002B000656D657267616E63794D6F64652F0000CF
:1002C0002D2D2D2D2D2D2D2D2D2D2D2D2D2D2D2D5E
:1002D0002D2D2D2D2D2D2D2D2D2D2D2D2D2D2D2D4E
:1002E0002D2D2D2D005265736F6C7574696F6E3AEC
:1002F000202020004D696E2056616C75653A2020E3
:100300002020004D61782056616C75653A202020D0
:100310002000556E697175652049443A20202020DF
:1003200000447269766572205665723A202020007A
:1003300053656E736F723A20202020202020000029
:1003400053797374656D204572726F723A20203054
:10035000780053656C6620546573743A2020202021
:100360002030780053797374656D2053746174750F
:10037000733A203078000041545A0041545A0041E9
:100380005445002D2D2D2D2D2D2D2D2D2D2D2D2D8B
:100390002D2D2D00415449002D2D2D2D2D2D2D2D90
:1003A0002D2D2D2D2D2D2D2D004154493D34004155
:1003B0006461667275697420475053206C6962727B
:1003C00061727920626173696320746573742100BE
:1003D0002A2A2A2A2A2A2A2A2A2A2A2A2A2A2A2A7D
:1003E0002A2A2A2A2A2A2A2A2A2A2A2A2A2A00536E
:1003F0007769746368696E6720746F204441544163
:10040000206D6F6465210041542B4741504445568F
:100410004E414D453D526F626F7420427920436FCB
:100420006E6E65720041542B48574D6F64654C45A4
:10043000443D4D4F4445004368616E6765204C451F
:100440004420616374697669747920746F204D4F1C
:100450004445002A2A2A2A2A2A2A2A2A2A2A2A2AF1
:100460002A2A2A2A2A2A2A2A2A2A2A2A2A2A2A2AEC
:100470002A005468656E20456E7465722063686159
:100480007261637465727320746F2073656E64208B
:10049000746F20426C7565667275697400506C6586
:1004A0006173652075736520416461667275697456
:1004B00020426C75656672756974204C45206170C8
:1004C0007020746F20636F6E6E65637420696E2098
:1004D00055415254206D6F646500526571756573A6
:1004E00074696E6720426C756566727569742069FF
:1004F0006E666F3A004F4B2100436F756C646E2738
:10050000742066696E6420426C75656672756974E4
:100510002C206D616B65207375726520697427737B
:1005200020696E20436F4D6D616E44206D6F646570
:10053000202620636865636B20776972696E673F68
:1005400000496E697469616C6973696E67207468CB
:100550006520426C75656672756974204C45206D26
:100560006F64756C653A20002D2D2D2D2D2D2D2DB0
:100570002D2D2D2D2D2D2D2D2D2D2D2D2D2D2D2DAB
:100580002D2D2D2D2D2D2D2D2D2D2D2D2D2D2D2D9B
:100590002D2D2D2D2D2D2D2D004164616672756937
:1005A0007420426C7565667275697420436F6D6D59
:1005B000616E64203C2D3E2044617461204D6F6467
:1005C00065204578616D706C65004F6F6F70732C9E
:1005D000206E6F20424E4F30353520646574656360
:1005E000746564202E2E2E20436865636B20796F1E
:1005F000757220776972696E67206F722049324385
:100600002041444452210000002100240027002AF8
:10061000002D003000330001010000040107010A31
:100620000100000A0B02090C0D0E0807030401006B
:1006300000000000000000000000000000000000BA
:100640000000000000000000000000000012111077
:10065000000000000000000000000000000000009A
:100660000000000000000000002200250028002BF0
:10067000002E003100340002010000050108010BCA
:1006800001000020002300260029002C002F00324A
:100690000000010000030106010901050505050729
:1006A0000508080808020202020A0A0808040404ED
:1006B0000401010101010101010303030303030319
:1006C00003040707070C0C0C0C0C0C0C0C020202A8
:1006D0000206060606060606060B0B0B0B0B0B0B9B
:1006E0000B0102102020080810204010204080023A
:1006F0000102010804020101020408102040808068
:1007000040201008040201800402018040201008EB
:1007100004020108040201010204081020408001C3
:10072000020408102040804E414E494E4954594918
:100730004E46CDCCCC3D0AD7233C17B7D13877CC29
:100740002B329595E6241FB14F0A0000204100008E
:10075000C84200401C4620BCBE4CCA1B0E5AAEC547
:100760009D7400407A10F35A00A0724E18090010D0
:10077000A5D4E80000E87648170000E40B54020016
:1007800000CA9A3B000000E1F50500008096980041
:10079000000040420F000000A0860100000010276A
:1007A00000000000E80300000000640000000000FA
:1007B0000A00000000000100000000002C76D8882C
:1007C000DC674F0823DFC1DFAE59E1B1B796E5E33F
:1007D000E453C63AE651997696E8E6C28426EB8958
:1007E0008C9B62ED407C6FFCEFBC9C9F40F2BAA5F5
:1007F0006FA5F490055A2AF75C936B6CF9676DC18D
:100800001BFCE0E40D47FEF520E6B500D0ED902E90
:100810000300943577050080841E080000204E0AEE
:10082000000000C80C333333330F986E128311412C
:10083000EF8D2114893BE65516CFFEE6DB18D184F7
:100840004B381BF77C1D901DA4BBE424203284721E
:100850005E228100C9F124ECA1E53D27EA29342478
:1008600011241FBECFEFD1E2DEBFCDBF00E00CBF31
:1008700013E0A0E0B2E0E8E6F0E700E00BBF02C062
:1008800007900D92A63EB107D9F728E0A6EEB3E097
:1008900001C01D92A53BB207E1F714E0CFE2D4E01E
:1008A00000E006C021970109802FFE010E947C2CE8
:1008B000CE32D10780E00807A9F70E9446240C94A5
:1008C00022380C94000008953F924F925F926F92ED
:1008D0007F928F929F92AF92BF92CF92DF92EF92D0
:1008E000FF920F931F93CF93DF93CDB7DEB7AF97F0
:1008F0000FB6F894DEBF0FBECDBF809130048111DA
:1009000006C08091B707811102C00E940E2330906B
:10091000960531101BC0C0909705D0909805E090C7
:100920009905F0909A050E94071D6C157D058E05AE
:100930009F0508F020C50E94071D609397057093DE
:1009400098058093990590939A0515C51092960580
:100950000091940510919505F80101900020E9F7A8
:10096000CF01801B910B0597F801E80FF91F20813B
:100970002A3241F421E0422F50E04817590710F481
:100980002F5FF9CF68E872E0C8010E946230892BBE
:1009900009F473C26CE270E0C8010E9438308C0127
:1009A0000F5F1F4FC8010E94C7314B015C010E94BD
:1009B0007E2D6B017C0120E137E240E050E00E9497
:1009C000E63720936D0744E6442E512C612C712CA0
:1009D000A30192010E94E63720936E07C701B6017A
:1009E000A30192010E94E63760936F0720E030E098
:1009F00040E85FE3C501B4010E94B82D20E030E07B
:100A00004AE754E40E9418370E947E2D70937407C1
:100A1000609373076CE270E0C8010E9438305C019B
:100A20008C010F5F1F4FFC0181818C3209F4A9C03A
:100A300042E050E0B801CE0101960E9453301B8283
:100A4000CE0101960E94E9319B01AC0160E876E994
:100A500088E990E00E94D6372B013C01B5016D5F1B
:100A60007F4F42E050E0CE0101960E9453300B5F71
:100A70001F4F44E050E0B801CE0103960E9453306E
:100A80001F82CE0101960E94E9319B01AC01A2E3D5
:100A9000B0E00E94083823E030E040E050E00E94DF
:100AA0005D2C49015A01D301C201820F931FA41F7B
:100AB000B51F80937D0790937E07A0937F07B09327
:100AC0008007C301B20120EA36E841E050E00E940D
:100AD0005D2CCA01B9010E94B9362B013C01C50148
:100AE000B4010E94B9362CE933E549EC56E30E9483
:100AF00018379B01AC01C301B2010E94992C2B0154
:100B00003C01609375077093760780937707909305
:100B1000780720E030E048EC52E40E94052D0E9466
:100B2000772D4B015C0184E6889DB001899D700D95
:100B30001124072E000C880B990B0E94B9369B01DB
:100B4000AC01C301B2010E94982C20E030E040E7E4
:100B500052E40E94052D2B013C01B401990C880B35
:100B6000990B0E94B9369B01AC01C301B2010E94EE
:100B7000992C6093850770938607809387079093DD
:100B800088076CE270E0C8010E943830FC019C01CB
:100B90002F5F3F4F81818C3209F1833589F4409179
:100BA0008507509186076091870770918807705874
:100BB0004093850750938607609387077093880753
:100BC00091819E3411F0933519F49093A50706C0D6
:100BD0009C3211F00C945C101092A5076CE270E04E
:100BE000C9010E9438305C018C010F5F1F4FFC016E
:100BF00081818C3209F4A9C043E050E0B801CE01F4
:100C000001960E9453301C82CE0101960E94E93168
:100C10009B01AC0160E876E988E990E00E94D63754
:100C20002B013C01B5016C5F7F4F42E050E0CE01EB
:100C300001960E9453300A5F1F4F44E050E0B80114
:100C4000CE0103960E9453301F82CE0101960E946E
:100C5000E9319B01AC01A2E3B0E00E94083823E037
:100C600030E040E050E00E945D2C49015A01D30180
:100C7000C201820F931FA41FB51F80938107909319
:100C80008207A0938307B0938407C301B20120EACF
:100C900036E841E050E00E945D2CCA01B9010E9493
:100CA000B9362B013C01C501B4010E94B9362CE9CB
:100CB00033E549EC56E30E9418379B01AC01C301B0
:100CC000B2010E94992C2B013C016093790770932B
:100CD0007A0780937B0790937C0720E030E048EC14
:100CE00052E40E94052D0E94772D4B015C0184E6A1
:100CF000889DB001899D700D1124072E000C880B72
:100D0000990B0E94B9369B01AC01C301B2010E944C
:100D1000982C20E030E040E752E40E94052D2B01A2
:100D20003C01B401990C880B990B0E94B9369B01C8
:100D3000AC01C301B2010E94992C609389077093A2
:100D40008A0780938B0790938C076CE270E0C80150
:100D50000E943830FC019C012F5F3F4F81818C3213
:100D600009F1873589F44091890750918A0760918C
:100D70008B0770918C0770584093890750938A07AE
:100D800060938B0770938C079181973511F09534A0
:100D900019F49093A60706C09C3211F00C945C10D5
:100DA0001092A6076CE270E0C9010E9438308C01F5
:100DB0000F5F1F4FFC0181818C3229F0C8010E9416
:100DC000CB318093A9076CE270E0C8010E943830F3
:100DD0008C010F5F1F4FFC0181818C3229F0C8010B
:100DE0000E94CB318093AA076CE270E0C8010E9498
:100DF00038308C010F5F1F4FFC0181818C3259F01C
:100E0000C8010E94C7316093A1077093A207809325
:100E1000A3079093A4076CE270E0C8010E943830E9
:100E20008C010F5F1F4FFC0181818C3259F0C8018A
:100E30000E94C73160939107709392078093930744
:100E4000909394076CE270E0C8010E9438306CE225
:100E500070E001960E943830FC0121812C3209F4A7
:100E600087C201960E94C73160938D0770938E07E9
:100E700080938F07909390077BC26FE872E0C80160
:100E80000E946230892B11F40C945C106CE270E0CB
:100E9000C8010E9438308C010F5F1F4FC8010E94AB
:100EA000C7314B015C010E947E2D6B017C0120E16A
:100EB00037E240E050E00E94E63720936D0734E6C9
:100EC000432E512C612C712CA30192010E94E63714
:100ED00020936E07C701B601A30192010E94E63775
:100EE00060936F0720E030E040E85FE3C501B401A4
:100EF0000E94B82D20E030E04AE754E40E94183701
:100F00000E947E2D70937407609373076CE270E00B
:100F1000C8010E943830FC012181213421F421E0F4
:100F20002093A80706C0263511F00C945C1010928F
:100F3000A8076CE270E001960E9438305C018C01D9
:100F40000F5F1F4FFC0181818C3209F4A9C042E080
:100F500050E0B801CE0101960E9453301B82CE01B1
:100F600001960E94E9319B01AC0160E876E988E9CD
:100F700090E00E94D6372B013C01B5016D5F7F4F99
:100F800042E050E0CE0101960E9453300B5F1F4FAC
:100F900044E050E0B801CE0103960E9453301F8216
:100FA000CE0101960E94E9319B01AC01A2E3B0E0C1
:100FB0000E94083823E030E040E050E00E945D2CC1
:100FC00049015A01D301C201820F931FA41FB51F0B
:100FD00080937D0790937E07A0937F07B09380074F
:100FE000C301B20120EA36E841E050E00E945D2CE6
:100FF000CA01B9010E94B9362B013C01C501B401F7
:101000000E94B9362CE933E549EC56E30E941837C3
:101010009B01AC01C301B2010E94992C2B013C0140
:10102000609375077093760780937707909378079E
:1010300020E030E048EC52E40E94052D0E94772D1C
:101040004B015C0184E6889DB001899D700D1124DF
:10105000072E000C880B990B0E94B9369B01AC013E
:10106000C301B2010E94982C20E030E040E752E436
:101070000E94052D2B013C01B401990C880B990BA2
:101080000E94B9369B01AC01C301B2010E94992CA8
:1010900060938507709386078093870790938807EE
:1010A0006CE270E0C8010E943830FC019C012F5FA7
:1010B0003F4F81818C3201F1833589F4409185075E
:1010C0005091860760918707709188077058409308
:1010D00085075093860760938707709388079181EF
:1010E0009E3411F0933519F49093A50705C09C32F6
:1010F00009F0E2C71092A5076CE270E0C9010E94F6
:1011000038305C018C010F5F1F4FFC0181818C32F4
:1011100009F4A9C043E050E0B801CE0101960E9455
:1011200053301C82CE0101960E94E9319B01AC0133
:1011300060E876E988E990E00E94D6372B013C010F
:10114000B5016C5F7F4F42E050E0CE0101960E94F6
:1011500053300A5F1F4F44E050E0B801CE010396C0
:101160000E9453301F82CE0101960E94E9319B01FB
:10117000AC01A2E3B0E00E94083823E030E040E098
:1011800050E00E945D2C49015A01D301C201820F37
:10119000931FA41FB51F8093810790938207A0938C
:1011A0008307B0938407C301B20120EA36E841E027
:1011B00050E00E945D2CCA01B9010E94B9362B0192
:1011C0003C01C501B4010E94B9362CE933E549EC74
:1011D00056E30E9418379B01AC01C301B2010E9483
:1011E000992C2B013C016093790770937A078093C7
:1011F0007B0790937C0720E030E048EC52E40E94AB
:10120000052D0E94772D4B015C0184E6889DB0017D
:10121000899D700D1124072E000C880B990B0E94DC
:10122000B9369B01AC01C301B2010E94982C20E0A9
:1012300030E040E752E40E94052D2B013C01B4014F
:10124000990C880B990B0E94B9369B01AC01C30124
:10125000B2010E94992C6093890770938A0780934A
:101260008B0790938C076CE270E0C8010E943830C5
:10127000FC019C012F5F3F4F81818C3201F187354A
:1012800089F44091890750918A0760918B0770918A
:101290008C0770584093890750938A0760938B0797
:1012A00070938C079181973511F0953419F49093D0
:1012B000A60705C09C3209F0FFC61092A6076CE293
:1012C00070E0C9010E9438308C010F5F1F4FFC0194
:1012D00081818C3259F0C8010E94C7316093950713
:1012E0007093960780939707909398076CE270E04D
:1012F000C8010E9438308C010F5F1F4FFC018181B3
:101300008C3259F0C8010E94C731609399077093DD
:101310009A0780939B0790939C076CE270E0C8014A
:101320000E943830FC0121812C3211F101960E947B
:10133000C7310E947E2D2B013C0120E137E240E0C5
:1013400050E00E94E6372093720724E6822E912C0B
:10135000A12CB12CA50194010E94E63720937107BE
:10136000C301B201A50194010E94E63760937007A2
:101370003110D1CAA1C60E94071D00919705109196
:1013800098052091990530919A05DC01CB01801BCD
:10139000910BA20BB30B813D9740A105B10508F459
:1013A0005BC20E94071D6093970570939805809318
:1013B000990590939A0580917307909174071DA2E7
:1013C0001CA21FA21EA219A618A64AE0BE016F5FAA
:1013D0007F4F0E949832BE016F5F7F4FCE0184968F
:1013E0000E9415184AE060916F07CE014E960E9448
:1013F000A4184AE060916E07CE0148960E94A41896
:101400004AE060916D07CE0142960E94A41866E9F9
:1014100072E0CE0101960E941219BE016E5E7F4FEE
:10142000CE0101960E94811D6EE972E00E94681D46
:10143000BE01685E7F4F0E94811D6EE972E00E94CE
:10144000681DBE01625E7F4F0E94811D6EE972E0E1
:101450000E94681DBE016C5D7F4F0E94811DBC0112
:10146000CE018A960E940919CE018A960E94A41B79
:10147000CE018A960E944318CE0101960E9443181D
:10148000CE0142960E944318CE0148960E9443180E
:10149000CE014E960E944318CE0184960E944318B6
:1014A0004AE060917007CE014E960E94A4184AE06F
:1014B00060917107CE0148960E94A4184AE060919D
:1014C0007207CE0142960E94A41860EA72E0CE0133
:1014D00001960E941219BE016E5E7F4FCE010196E9
:1014E0000E94811D67EA72E00E94681DBE01685E6D
:1014F0007F4F0E94811D69EA72E00E94681DBE0153
:10150000625E7F4F0E94811DBC01CE0184960E94C5
:101510000919CE0184960E94A41BCE0184960E94D4
:101520004318CE0101960E944318CE0142960E94B4
:101530004318CE0148960E944318CE014E960E9451
:1015400043186091A80770E04AE0CE0142960E94DD
:1015500078186DEA72E0CE0101960E941219BE0160
:101560006E5E7F4FCE0101960E94811DBC01CE01AF
:1015700048960E940919CE0148960E94A41BCE01EC
:1015800048960E944318CE0101960E944318CE014E
:1015900042960E9443184AE06091A907CE01429604
:1015A0000E94A41863EB72E0CE0101960E9412190A
:1015B000BE016E5E7F4FCE0101960E94811DBC016F
:1015C000CE0148960E940919CE0148960E94A41B9C
:1015D000CE0148960E944318CE0101960E944318FE
:1015E000CE0142960E9443188091A807882309F4EF
:1015F00033C18091A6071DA21CA21FA21EA219A67C
:1016000018A689831A82BE016F5F7F4FCE01849630
:101610000E9415184091790750917A0760917B07D5
:1016200070917C0722E0CE014E960E94481880916E
:10163000A507198E188E1B8E1A8E1D8E1C8E8983FF
:101640001A82BE016F5F7F4FCE0148960E94151827
:1016500040917507509176076091770770917807F0
:1016600022E0CE0142960E9448186EEB72E0CE0155
:1016700001960E941219BE016E5E7F4FCE01019647
:101680000E94811DBE01685E7F4F0E94811D69EC32
:1016900072E00E94681DBE01625E7F4F0E94811D44
:1016A000BE016C5D7F4F0E94811DBC01CE018A96F8
:1016B0000E940919CE018A960E94A41BCE018A9627
:1016C0000E944318CE0101960E944318CE01429613
:1016D0000E944318CE0148960E944318CE014E96B0
:1016E0000E944318CE0184960E94431840919507AA
:1016F00050919607609197077091980722E0CE016C
:1017000042960E9448186CEC72E0CE0101960E944D
:101710001219BE016E5E7F4FCE0101960E94811D9F
:10172000BC01CE0148960E940919CE0148960E943C
:10173000A41BCE0148960E944318CE0101960E9438
:101740004318CE0142960E94431840919907509148
:101750009A0760919B0770919C0722E0CE01429608
:101760000E9448186CED72E0CE0101960E94121999
:10177000BE016E5E7F4FCE0101960E94811DBC01AD
:10178000CE0148960E940919CE0148960E94A41BDA
:10179000CE0148960E944318CE0101960E9443183C
:1017A000CE0142960E9443184091910750919207B2
:1017B000609193077091940722E0CE0142960E94B7
:1017C000481864EE72E0CE0101960E941219BE0123
:1017D0006E5E7F4FCE0101960E94811DBC01CE013D
:1017E00048960E940919CE0148960E94A41BCE017A
:1017F00048960E944318CE0101960E944318CE01DC
:1018000042960E9443184AE06091AA07CE01429690
:101810000E94A4186FEE72E0CE0101960E94121988
:10182000BE016E5E7F4FCE0101960E94811DBC01FC
:10183000CE0148960E940919CE0148960E94A41B29
:10184000CE0148960E944318CE0101960E9443188B
:10185000CE0142960E9443180E94071D24E630E004
:1018600040E050E00E94E637672B682B692B09F0B7
:1018700009C16CEF72E0CE0142960E94121989E212
:1018800090E00E94B31B882349F06DED73E0CE0118
:1018900042960E94941D1092090209C06BEA72E000
:1018A000CE0142960E94941D81E0809309028BE252
:1018B00090E00E94B31B882349F06DED73E0CE01E8
:1018C00042960E94941D1092080209C081E0809304
:1018D00008026BEA72E0CE0142960E94941D88E2F3
:1018E00090E00E94B31B882349F06DED73E0CE01B8
:1018F00042960E94941D1092070209C081E08093D5
:1019000007026BEA72E0CE0142960E94941D8DE2BE
:1019100090E00E94B31B882349F06DED73E0CE0187
:1019200042960E94941D1092060209C06BEA72E072
:10193000CE0142960E94941D81E0809306028CE2C3
:1019400090E00E94B31B882349F06DED73E0CE0157
:1019500042960E94941D1092050209C06BEA72E043
:10196000CE0142960E94941D81E08093050287E299
:1019700090E00E94B31B882349F06DED73E0CE0127
:1019800042960E94941D1092040209C06BEA72E014
:10199000CE0142960E94941D81E0809304028AE267
:1019A00090E00E94B31B882349F06DED73E0CE01F7
:1019B00042960E94941D1092030209C06BEA72E0E5
:1019C000CE0142960E94941D81E08093030286E23C
:1019D00090E00E94B31B882349F06DED73E0CE01C7
:1019E00042960E94941D1092020209C06BEA72E0B6
:1019F000CE0142960E94941D81E08093020281E311
:101A000090E00E94B31B882349F06DED73E0CE0196
:101A100042960E94941D1092010209C06BEA72E086
:101A2000CE0142960E94941D81E0809301028EE2D5
:101A300090E00E94B31B882349F06DED73E0CE0166
:101A400042960E94941D1092000209C06BEA72E057
:101A5000CE0142960E94941D81E080930002BE0157
:101A60006E5E7F4FCE0101960E940919CE0101964C
:101A70000E94A41BCE0101960E944318CE014296FB
:101A80000E94431887EF94E00E94AC16892B09F45A
:101A900092C187EF94E00E94AC16892B09F48BC1A8
:101AA00087EF94E00E948A16182F6BE975E0CE014B
:101AB00001960E9409191A8B1B8A41E050E0BE0171
:101AC0006E5E7F4FCE0101960E94B417811104C053
:101AD000CE0101960E94E217BE016F5F7F4F8BE936
:101AE00095E00E942C18CE0101960E9443181F32E7
:101AF00081F66BE975E0CE0101960E940919CE01CD
:101B000001960E94A41BCE0101960E94431868E42E
:101B100072E0CE0101960E94D118CE0101960E947A
:101B2000A41BCE0101960E9443180E94D912FC0109
:101B30008081823709F08CC060919F057091A0056B
:101B400061507109CE0101960E949612CE01019654
:101B50000E945D1D20E030E040EA50E40E94052D27
:101B60004B015C01CE0101960E94431860919F05D4
:101B70007091A00561507109CE0101960E949612E4
:101B8000CE0101960E94A41BCE0101960E9443182B
:101B900022E0B501A401CE0142960E9448186EEFE2
:101BA00072E0CE0101960E941219BE016E5E7F4F57
:101BB000CE0101960E94811D63E173E00E94681DC1
:101BC000BC01CE0148960E940919CE0148960E9498
:101BD000A41BCE0148960E944318CE0101960E9494
:101BE0004318CE0142960E94431820E030EC4FE7A4
:101BF00054E4C501B4010E9418376B017C0120E058
:101C000030E0A9010E94B23687FF0CC020E030EC22
:101C10004FE754ECC501B4010E9418370E947E2D95
:101C2000462F14C020E030E0A901C701B6010E9490
:101C30000F2E181654F4C701B6010E947E2D462FB0
:101C400062E080E00E949F1AB0C040E061E0F9CFFE
:101C50000E94D912FC0180818C3609F08AC0609103
:101C60009F057091A00561507109CE0101960E94F7
:101C70009612CE0101960E945D1D20E030E040EA00
:101C800050E40E94052D4B015C01CE0101960E949B
:101C9000431860919F057091A00561507109CE01B4
:101CA00001960E949612CE0101960E94A41BCE01BD
:101CB00001960E94431822E0B501A401CE0142968C
:101CC0000E9448186EEF72E0CE0101960E94121930
:101CD000BE016E5E7F4FCE0101960E94811D63E1C1
:101CE00073E00E94681DBC01CE0148960E9409194C
:101CF000CE0148960E94A41BCE0148960E9443182C
:101D0000CE0101960E944318CE0142960E944318CC
:101D100020E030EC4FE754E4C501B4010E941837CD
:101D20006B017C0120E030E0A9010E94B23687FF00
:101D30000CC020E030EC4FE754ECC501B4010E9428
:101D400018370E947E2D462F11C020E030E0A901F7
:101D5000C701B6010E940F2E18163CF4C701B60148
:101D60000E947E2D462F62E002C040E061E081E0EB
:101D700069CF60E472E0CE0101960E94D118CE01D5
:101D800001960E94A41BCE0101960E9443186BE9A4
:101D900075E0CE0101960E940919CE0101960E94BC
:101DA0002D1CCE0101960E94431860E273E08BE97E
:101DB00095E00E94151881EA95E00E948111892B17
:101DC00009F47AC181EA95E00E948111892B09F416
:101DD00073C181EA95E00E947511182F6BE975E0D7
:101DE000CE0101960E9409191A8B1B8A41E050E02E
:101DF000BE016E5E7F4FCE0101960E94B417811125
:101E000004C0CE0101960E94E217BE016F5F7F4FB2
:101E10008BE995E00E942C18CE0101960E94431890
:101E20001F3281F60E94D912FC018081823709F0AD
:101E30008CC060919F057091A00561507109CE0121
:101E400001960E949612CE0101960E945D1D20E02F
:101E500030E040EA50E40E94052D4B015C01CE01C8
:101E600001960E94431860919F057091A0056150F2
:101E70007109CE0101960E949612CE0101960E9430
:101E8000A41BCE0101960E94431822E0B501A401D3
:101E9000CE0142960E9448186EEF72E0CE01019684
:101EA0000E941219BE016E5E7F4FCE0101960E9404
:101EB000811D63E173E00E94681DBC01CE0148965C
:101EC0000E940919CE0148960E94A41BCE01489693
:101ED0000E944318CE0101960E944318CE014296FB
:101EE0000E94431820E030EC4FE754E4C501B401F0
:101EF0000E9418376B017C0120E030E0A9010E94AC
:101F0000B23687FF0CC020E030EC4FE754ECC5013F
:101F1000B4010E9418370E947E2D462F14C020E085
:101F200030E0A901C701B6010E940F2E181654F423
:101F3000C701B6010E947E2D462F62E080E00E941C
:101F40009F1AB0C040E061E0F9CF0E94D912FC01B5
:101F500080818C3609F08AC060919F057091A00540
:101F600061507109CE0101960E949612CE01019630
:101F70000E945D1D20E030E040EA50E40E94052D03
:101F80006B017C01CE0101960E94431860919F0570
:101F90007091A00561507109CE0101960E949612C0
:101FA000CE0101960E94A41BCE0101960E94431807
:101FB00022E0B701A601CE0142960E9448186EEFBA
:101FC00072E0CE0101960E941219BE016E5E7F4F33
:101FD000CE0101960E94811D63E173E00E94681D9D
:101FE000BC01CE0148960E940919CE0148960E9474
:101FF000A41BCE0148960E944318CE0101960E9470
:102000004318CE0142960E94431820E030EC4FE77F
:1020100054E4C701B6010E9418374B015C0120E06F
:1020200030E0A9010E94B23687FF0CC020E030ECFE
:102030004FE754ECC701B6010E9418370E947E2D6D
:10204000462F11C020E030E0A901C501B4010E9473
:102050000F2E18163CF4C501B4010E947E2D462FA8
:1020600062E002C040E061E081E069CF68E372E0D5
:10207000CE0101960E94D118CE0101960E94A41BA8
:10208000CE0101960E9443186BE975E0CE010196DE
:102090000E940919CE0101960E942D1CCE010196C5
:1020A0000E94431860E273E08BE995E00E941518E6
:1020B00081EA95E00E945D11AF960FB6F894DEBFFD
:1020C0000FBECDBFDF91CF911F910F91FF90EF9089
:1020D000DF90CF90BF90AF909F908F907F906F9048
:1020E0005F904F903F9008951F920F920FB60F92FE
:1020F00011240BB60F922F933F934F935F936F93DF
:102100007F938F939F93AF93BF93EF93FF938091B0
:10211000B707811102C00E940E23FF91EF91BF917A
:10212000AF919F918F917F916F915F914F913F916F
:102130002F910F900BBE0F900FBE0F901F90189510
:1021400085ED8093BC008091BC0084FDFCCF109293
:10215000EA04089540910A04262F30E0240F311D2F
:1021600021323105DCF42091EA042430C9F4FC0169
:1021700080E090E0861758F430910A042191DC0148
:10218000A851BC4FA30FB11D2C930196F3CF8091A2
:102190000A04680F60930A0480E0089581E00895BE
:1021A00082E008950895E091E7038091E603E8173F
:1021B00030F4F0E0EC55FB4F808190E008958FEF14
:1021C0009FEF08959091E7038091E603981750F4EC
:1021D000E92FF0E0EC55FB4F208130E09F5F9093BA
:1021E000E70302C02FEF3FEFC90108958091E60396
:1021F00090E02091E703821B91090895CF92DF922E
:10220000EF92FF920F931F93CF93DF937C01262FC2
:10221000972F8A0180918004882391F0C62FD72FB1
:102220006E01C40ED51ECC15DD0571F06991D70184
:10223000ED91FC910190F081E02DC7011995F3CF4C
:10224000642F822F0E94AA10C801DF91CF911F91A5
:102250000F91FF90EF90DF90CF900895CF93DF9391
:102260001F92CDB7DEB76983209180042223D1F07D
:102270002091A304203240F021E030E0FC013383C0
:10228000228380E090E015C080918104E82FF0E087
:10229000EE57FB4F998190838F5F809381048093E9
:1022A000A30405C061E0CE0101960E94AA1081E05E
:1022B00090E00F90DF91CF910895FC01EF59FF4F0F
:1022C00080819181DC01ED91FC910284F385E02D08
:1022D0001994FC01EF59FF4F80819181DC01ED9150
:1022E000FC910084F185E02D1994FC01EF59FF4F1A
:1022F00080819181DC01ED91FC910680F781E02DD8
:1023000019940F931F93CF93DF93EC018C010F5916
:102310001F4FD8018D919C91DC01ED91FC910480BF
:10232000F581E02D1995C15ADF4F2881892B81F461
:10233000121674F460E0822F0E94542161E070E074
:1023400080E090E00E94C02161E088810E945421D9
:10235000F80180819181DC01ED91FC910480F5818F
:10236000E02DDF91CF911F910F911994EF92FF9281
:102370001F93CF93DF93EC01162F8D85882321F0D7
:1023800087EF94E00E9427197E0180E6E80EF11C99
:10239000D7018C9187FD0DC0F70180810E942B2110
:1023A000892B89F061E070E080E090E00E94C0211C
:1023B000F3CFFE01E859FF4F8081682F70E080E085
:1023C00090E00E94C02183EC90E00197F1F7CF5993
:1023D000DF4F88819981DC01ED91FC910190F081C2
:1023E000E02D612FDF91CF911F91FF90EF90199415
:1023F000CF93DF932AE332E0FC0131832083EB5952
:10240000FF4FC081D181209701F1E881F9810284D9
:10241000F385E02DCE011995EA89FB8980818F7EB5
:102420008083EA89FB898081877F8083EA89FB89B1
:1024300080818F778083EA89FB8980818F7D80838B
:102440008A8D898FDF91CF910895FC01ED59FF4F5F
:1024500080819181DF91CF910C943D20CF93DF93C8
:10246000EC010E94F811CE01DF91CF910C94A92EBE
:10247000CF93DF93C9E2D6E09B8121E020938004D3
:102480009093A204109281041092A304682F8BEE03
:1024900094E00E942E1181E00E94D72361E08B819D
:1024A0000E9493231092E7038093E6038BEE94E05F
:1024B0000E94E210DF91CF910895CF93C62F9091A3
:1024C0002C0621E0209380049093A20410928104B2
:1024D0001092A304682F8BEE94E00E942E116C2FB3
:1024E0008BEE94E00E942E1181E00E94D72381E0C0
:1024F000CF910895BC018091B8079091B9070097DA
:1025000021F48091BA079091BB070C94C419E9E2B9
:10251000F6E080879187682F8DE390E00E945D123E
:102520006EE170E080E090E00C94C021DF92EF92C9
:10253000FF920F931F93CF93DF937C01EB012097C2
:1025400029F400E010E0C1E0D0E002C001E010E0BA
:1025500060E273E0C7010E94121980919F0590917B
:10256000A00508171907E0F48C179D0708F4EC0183
:10257000E0919B05F0919C05EC0FFD1FD08010822F
:1025800060919B0570919C05600F711FC7010E94AF
:10259000151880919B0590919C05C80FD91FD88272
:1025A000C701DF91CF911F910F91FF90EF90DF90C6
:1025B000089580919F059091A005892B31F080911D
:1025C0009B0590919C05009721F410922F048FE2B7
:1025D00094E008951F920F920FB60F9211240BB63C
:1025E0000F922F933F934F935F936F937F938F93AC
:1025F0009F93AF93BF93EF93FF938091B900887F30
:10260000803609F49CC068F5883209F45BC090F408
:10261000803109F454C038F4882309F4F6C08830B6
:1026200009F44DC0F6C0883109F44CC0803209F479
:102630005DC0EFC0803409F468C048F4803309F409
:1026400055C0883309F0E5C08093E804D8C08035D0
:1026500009F44FC0883509F45DC0883409F0D9C049
:10266000D6C0883909F4C7C0A8F4883709F467C010
:1026700038F4883609F463C0803709F460C0C9C0F3
:10268000883809F4B8C0803909F45FC0803809F08F
:10269000C0C05BC0803B09F486C038F4803A09F4BE
:1026A00066C0883A09F47FC0B4C0803C09F4A7C072
:1026B000883C09F4A4C0883B09F48AC0AAC0809170
:1026C000E50410C09091E7048091E604981770F536
:1026D000E091E70481E08E0F8093E704F0E0EC5393
:1026E000FB4F80818093BB0085EC86C08093E8041B
:1026F0008EC0E091E70481E08E0F8093E704809123
:10270000BB00F0E0EC53FB4F80839091E704809195
:10271000E6046EC0E091E70481E08E0F8093E70449
:102720008091BB00F0E0EC53FB4F80838091E90483
:1027300081116DC081E08093E40484EA61C083E08C
:102740008093EA0410922E04CFCF80912E04803221
:1027500008F051C0E0912E0481E08E0F80932E048A
:102760008091BB00F0E0E25FFB4F8083BDCF85EC42
:102770008093BC001092EA0480912E04803230F4E1
:10278000E0912E04F0E0E25FFB4F108260912E0496
:1027900070E0E0910C04F0910D048EE094E0199546
:1027A00010922E0436C084E08093EA0410920B0449
:1027B00010920A04E0910804F0910904199580919F
:1027C0000A04811105C081E080930A041092E80395
:1027D000E0910B0481E08E0F80930B04F0E0E85150
:1027E000FC4F80818093BB0090910B0480910A0480
:1027F000981708F479CF85E88093BC000AC085EC6F
:102800008093BC001092EA0404C01092E8040E9475
:10281000A010FF91EF91BF91AF919F918F917F9108
:102820006F915F914F913F912F910F900BBE0F9041
:102830000FBE0F901F901895EF92FF920F931F936A
:10284000CF93DF93CDB7DEB7C154D1090FB6F8945B
:10285000DEBF0FBECDBF8C01FC018585882331F022
:1028600063E672E087EF94E00E942E197801FEE0A3
:10287000EF0EF11CF80144815581BE016F5F7F4F5F
:10288000C8010E946122892BC9F065E173E0CE0185
:1028900001960E944330892B79F068E173E0CE0104
:1028A00001960E944330892B49F0BE016F5F7F4F34
:1028B000C7010E944C30DECF81E001C080E0CF5BD9
:1028C000DF4F0FB6F894DEBF0FBECDBFDF91CF91C3
:1028D0001F910F91FF90EF9008952F923F924F928A
:1028E0005F926F927F928F929F92AF92BF92CF92A0
:1028F000DF92EF92FF920F931F93CF93DF9300D05D
:102900001F921F92CDB7DEB79D838C836B015B83D3
:102910004A83522EDC011C96BC91B983B11108C0C8
:10292000DC01ED91FC910484F585E02D61E01995C1
:10293000B6018C819D810E942E1938018701C12C1E
:10294000D12C412C252C312CB1E02B1A3108451407
:1029500009F4D4C0411005C06DE38C819D810E94B3
:102960002719F301E190F1903F01C70188278115F4
:10297000F4E09F0709F47FC0A8F48115A2E09A074C
:1029800089F18115B3E09B0709F47BC08115914063
:1029900009F0A5C0D8016D917C918C819D810E9428
:1029A00052199DC08115F6E09F0709F486C040F4D6
:1029B0008115954009F093C0F801608171818BC049
:1029C0008115B7E09B0709F481C08115984009F093
:1029D00086C0D8014D915D916D917C9155276627F8
:1029E000772772C0F80180809180FF24F1E0EF1A10
:1029F000F108EFEFEE16FE0609F471C02FEF821A10
:102A0000920AF4013197B080AC81BD81ED91FC91C7
:102A10000190F081E02D8B2D82958F708A3010F01F
:102A200067E301C060E3680F8C819D811995AC81DB
:102A3000BD81ED91FC910190F081E02D2B2D2F7047
:102A40002A3010F067E301C060E3620F8C819D8142
:102A50001995E114F10459F0AC81BD81ED91FC911F
:102A600011970190F081E02D6DE2CD011995B1E053
:102A7000EB1AF108BECFD8014D915D916D917C911B
:102A800023C0F80180809180A280B380B7FE0DC082
:102A90006DE28C819D810E94271944275527BA0138
:102AA000481959096A097B090FC02AE0B501A40138
:102AB0008C819D810E94671912C0D8014D915D9152
:102AC0006D917C91662777272AE0F2CFF80160812B
:102AD000062E000C770B8C819D810E94C322C214AC
:102AE000D30429F06CE28C819D810E9427194394C4
:102AF000FFEFCF1ADF0A0C5F1F4F29CF6EE173E0A3
:102B00008C819D810E9452198A819B81892B29F198
:102B1000AC81BD811D968C91882331F068E672E00E
:102B200087EF94E00E942E198C819D810E94B71F2F
:102B3000892B51F040E050E060E070E08C819D8195
:102B40000E960E949C3003C060E070E0CB01EA81E9
:102B5000FB8160837183828393838C819D810E943A
:102B60001C14182FF981F1110BC0AC81BD81ED91BE
:102B7000FC9111970484F585E02D60E0CD01199555
:102B8000812F0F900F900F900F900F90DF91CF91AA
:102B90001F910F91FF90EF90DF90CF90BF90AF907B
:102BA0009F908F907F906F905F904F903F902F906D
:102BB00008954F925F926F927F92BF92CF92DF9271
:102BC000EF92FF920F931F93CF93DF9300D01F924A
:102BD000CDB7DEB7623008F046C0B62E6C01FC01FE
:102BE000E25AFF4F808187FD09C00E94542161E0B5
:102BF00070E080E090E00E94C02131C0E12CF12C17
:102C000000E010E020E0AE014F5F5F4F61E772E04F
:102C1000C6010E946D14882301F14B2C512C612CAC
:102C2000712C89819A81AB81BC8184159505A6059B
:102C3000B705A9F020E0AE014F5F5F4F6DE672E08F
:102C4000C6010E946D1449815A816B817C814415B3
:102C500055056605770539F403C080E001C081E0C1
:102C6000F601B48601C080E00F900F900F900F9096
:102C7000DF91CF911F910F91FF90EF90DF90CF9058
:102C8000BF907F906F905F904F900895CF92DF92AA
:102C9000EF92FF920F931F93CF93DF936C017A0112
:102CA0008B01C0E0D0E0CE15DF0589F0D8016D9131
:102CB0008D01D601ED91FC910190F081E02DC601CE
:102CC0001995892B11F47E0102C02196ECCFC70122
:102CD000DF91CF911F910F91FF90EF90DF90CF90F8
:102CE0000895FC01A089B1898C91A689B78982FDDC
:102CF0000FC09C91818D8F5F8F73228D821749F059
:102D0000218DDF01A20FB11D5D969C93818F0895E7
:102D10008C910895FC01918D828D981761F0828DC0
:102D2000DF01A80FB11D5D968C91928D9F5F9F73FF
:102D3000928F90E008958FEF9FEF0895FC01918DA1
:102D4000828D981731F0828DE80FF11D858D90E00E
:102D500008958FEF9FEF0895FC01918D228D892FAB
:102D600090E0805C9F4F821B91098F739927089593
:102D700080ED96E00E94AC1621E0892B09F420E05A
:102D8000822F089587EF94E00E94AC1621E0892BF2
:102D900009F420E0822F0895FC01848DDF01A80F43
:102DA000B11DA35ABF4F2C91848D90E001968F7373
:102DB0009927848FA689B7892C93A089B1898C9192
:102DC00080648C93938D848D981306C00288F38958
:102DD000E02D80818F7D80830895EF92FF920F9385
:102DE0001F93CF93DF93EC0181E0888F9B8D8C8DB7
:102DF000981305C0E889F989808185FD24C0F62EE5
:102E00000B8D10E00F5F1F4F0F731127E02E8C8D7D
:102E1000E8120CC00FB607FCFACFE889F989808167
:102E200085FFF5CFCE010E94CC16F1CF8B8DFE0130
:102E3000E80FF11DE35AFF4FF0820B8FEA89FB89FF
:102E40008081806207C0EE89FF896083E889F98903
:102E500080818064808381E090E0DF91CF911F9139
:102E60000F91FF90EF900895CF93DF93EC01888D41
:102E70008823C9F0EA89FB89808185FD05C0A8897E
:102E8000B9898C9186FD0FC00FB607FCF5CF808104
:102E900085FFF2CFA889B9898C9185FFEDCFCE014E
:102EA0000E94CC16E7CFDF91CF91089580E090E0AB
:102EB000892B21F00E94C216811121C080E090E090
:102EC000892B21F00E94B81681111CC080E090E08F
:102ED000892B41F080E090E0892B21F00E940000D6
:102EE000811113C080E090E0892BA1F080E090E098
:102EF000892B81F00E94000081110AC008950E9470
:102F00000000DCCF0E940000E1CF0E940000EACF69
:102F10000C94000008950F931F93CF93DF93EC015F
:102F200088819981009729F02A813B8126173707EC
:102F300088F48B016F5F7F4F0E94412F009761F0F3
:102F4000998388831B830A832C813D81232B11F471
:102F5000FC01108281E001C080E0DF91CF911F91E0
:102F60000F9108950C94A92EEF92FF920F931F9347
:102F7000CF93DF93FC01248135816115710511F434
:102F800080E019C041155105A9F07B01EC018A01CF
:102F9000020F131FB8010E948B17882389F3288121
:102FA00039818C819D81B701820F931F0E944C3023
:102FB0001D830C8381E0DF91CF911F910F91FF90D2
:102FC000EF900895CF93DF93EC018881998100976A
:102FD00011F00E94A92E198218821D821C821B8268
:102FE0001A82DF91CF910895EF92FF920F931F9372
:102FF000CF93DF93EC017B018A01BA010E948B170A
:10300000811104C0CE010E94E21707C01D830C830A
:10301000B701888199810E944C30CE01DF91CF9118
:103020001F910F91FF90EF900895CF93DF93EC01E4
:103030006115710559F0FB0101900020E9F7319706
:10304000AF01461B570B0E94F41702C00E94E21703
:10305000CE01DF91CF910895CF93DF93EC01FB0177
:103060008617970761F0608171816115710529F0FC
:10307000448155810E94F41702C00E94E217CE01DC
:10308000DF91CF910895FC01808191810C94A92E4C
:10309000EF92FF920F931F93CF93DF93CDB7DEB7DD
:1030A000A1970FB6F894DEBF0FBECDBF7C01CB0158
:1030B000BA01F701118210821382128215821482E2
:1030C00042E0420F8E010F5F1F4F0E947C30BC0117
:1030D000C7010E941518A1960FB6F894DEBF0FBE67
:1030E000CDBFDF91CF911F910F91FF90EF90089589
:1030F0000F931F93CF93DF93CDB7DEB762970FB6D1
:10310000F894DEBF0FBECDBF8C01CB01F801118258
:103110001082138212821582148250E0BE016F5F0A
:103120007F4F0E942932BE016F5F7F4FC8010E940E
:10313000151862960FB6F894DEBF0FBECDBFDF91B3
:10314000CF911F910F9108950F931F93CF93DF930A
:10315000CDB7DEB729970FB6F894DEBF0FBECDBF4F
:103160008C01862FF801118210821382128215823F
:10317000148250E0BE016F5F7F4F90E00E948D325D
:10318000BE016F5F7F4FC8010E94151829960FB6C8
:10319000F894DEBF0FBECDBFDF91CF911F910F918D
:1031A0000895EF92FF920F931F93CF93DF93EC015B
:1031B000198218821B821A821D821C826115710578
:1031C00009F18B01CB010E9420327C01BC01CE01B0
:1031D0000E948B17811109C0CE01DF91CF911F9101
:1031E0000F91FF90EF900C94E217FD82EC82B801F2
:1031F00088819981DF91CF911F910F91FF90EF907E
:103200000C941932DF91CF911F910F91FF90EF90A5
:103210000895FC0111821082138212821582148299
:103220000C942C18FC0111821082138212821582D8
:1032300014826115710551F0FB0101900020E9F73E
:103240003197AF01461B570B0C94F4170895DC011E
:10325000ED91FC910190F081E02D1994EF92FF9295
:103260000F931F93CF93DF938C017B01C0E0D0E0DD
:10327000F701EC0FFD1F6491662361F0D801ED9119
:10328000FC910190F081E02DC8011995892B11F076
:103290002196EECFCE01DF91CF911F910F91FF903C
:1032A000EF9008956115710579F0FB010190002000
:1032B000E9F73197AF01461B570BDC01ED91FC910B
:1032C0000280F381E02D199480E090E008954F9200
:1032D0005F926F927F92EF92FF920F931F93CF9323
:1032E000DF93CDB7DEB7A1970FB6F894DEBF0FBE60
:1032F000CDBF7C01FA01CB0119A2223008F42AE0EB
:103300008E010F5D1F4F422E512C612C712CBF017D
:10331000A30192010E94E637F901CA010150110987
:103320006A3014F4605D01C0695CD8016C93232B92
:10333000242B252B61F7B801C7010E945219A196D1
:103340000FB6F894DEBF0FBECDBFDF91CF911F91B6
:103350000F91FF90EF907F906F905F904F90089546
:103360000F931F93CF93DF93EC010E942E198C01D2
:103370006EE173E0CE010E945219800F911FDF9120
:10338000CF911F910F9108950F931F93CF93DF93C8
:10339000EC010E9452198C016EE173E0CE010E9493
:1033A0005219800F911FDF91CF911F910F910895B6
:1033B0000F931F93CF93DF93EC01E881F981DB0139
:1033C00014964D915C9115976D917C910280F381DB
:1033D000E02D19958C016EE173E0CE010E94521927
:1033E000800F911FDF91CF911F910F9108951F9230
:1033F0000F920FB60F9211240BB60F922F933F939B
:103400004F935F936F937F938F939F93AF93BF93EC
:10341000EF93FF9380ED96E00E94CC16FF91EF9121
:10342000BF91AF919F918F917F916F915F914F91DC
:103430003F912F910F900BBE0F900FBE0F901F90DA
:1034400018951F920F920FB60F9211240BB60F9280
:103450002F933F934F935F936F937F938F939F939C
:10346000AF93BF93EF93FF9380ED96E00E947116A8
:10347000FF91EF91BF91AF919F918F917F916F914C
:103480005F914F913F912F910F900BBE0F900FBE08
:103490000F901F9018951F920F920FB60F92112444
:1034A0000BB60F922F933F934F935F936F937F933E
:1034B0008F939F93AF93BF93EF93FF9387EF94E026
:1034C0000E94CC16FF91EF91BF91AF919F918F9188
:1034D0007F916F915F914F913F912F910F900BBE14
:1034E0000F900FBE0F901F9018951F920F920FB65E
:1034F0000F9211240BB60F922F933F934F935F932C
:103500006F937F938F939F93AF93BF93EF93FF93AB
:1035100087EF94E00E947116FF91EF91BF91AF91F8
:103520009F918F917F916F915F914F913F912F91DB
:103530000F900BBE0F900FBE0F901F901895DF924B
:10354000EF92FF920F931F93CF93DF93C62FD42E4A
:10355000082F10E0F801EE0FFF1FE65EFD4F62300E
:1035600068F461E080810E945421C1110DC0F8010E
:10357000EE0FFF1FEA5EFD4F61E00CC060E080814E
:103580000E945421C23099F3F801EE0FFF1FEA5E4A
:10359000FD4F60E080810E945421CD2DD0E0000FCE
:1035A000111FF801EE5EFD4FE080F18061E08E2D8D
:1035B0000E948421209709F4B1C0CF3FD10509F4BE
:1035C000AFC0F701FF27EF5DF94FE4910E2F10E038
:1035D000F8013197E231F10508F09DC08827EE58D7
:1035E000FF4F8F4F0C947C2C84B5806884BDD7BC72
:1035F000A2C084B5806284BDD8BC9DC0809180008B
:10360000806880938000D0938900C093880093C025
:1036100080918000806280938000D0938B00C09363
:103620008A0089C080918000886080938000D09358
:103630008D00C0938C007FC08091B0008068809323
:10364000B000D092B30077C08091B00080628093C8
:10365000B000D092B4006FC08091900080688093D9
:103660009000D0939900C093980065C0809190001D
:10367000806280939000D0939B00C0939A005BC0BF
:1036800080919000886080939000D0939D00C093BB
:103690009C0051C08091A00080688093A000809120
:1036A000A0008F7B8093A000D093A900C093A800B6
:1036B00042C08091A00080628093A000D093AB00B4
:1036C000C093AA0038C08091A00088608093A000B9
:1036D000D093AD00C093AC002EC0809120018068D3
:1036E00080932001D0932901C093280124C08091A8
:1036F0002001806280932001D0932B01C0932A0186
:103700001AC080912001886080932001D0932D0100
:10371000C0932C0110C0C038D10514F460E001C082
:1037200061E08E2DDF91CF911F910F91FF90EF906F
:10373000DF900C945421DF91CF911F910F91FF9056
:10374000EF90DF9008950895CF93DF93EC01BC01D3
:1037500087EF94E00E94D819BE0181EA95E0DF91DD
:10376000CF910C94D819CF93DF93CDB7DEB7649780
:103770000FB6F894DEBF0FBECDBFBC016B8B7C8B48
:103780000E942B2120913104309132046B897C8975
:10379000019761F5121613060CF053C04AE0CE01F2
:1037A00007960E94781861E273E0CE0101960E94AC
:1037B0001219BE01695F7F4FCE0101960E94811DE3
:1037C000BC01CE010D960E940919CE010D960E94F2
:1037D000A41BCE010D960E944318CE0101960E94B3
:1037E0004318CE0107960E9443182BC012161306E9
:1037F00054F54AE0CE0107960E9478186CE373E016
:10380000CE0101960E941219BE01695F7F4FCE0161
:1038100001960E94811DBC01CE010D960E940919DE
:10382000CE010D960E94A41BCE010D960E94431856
:10383000CE0101960E944318CE0107960E944318BC
:1038400002C081E001C080E064960FB6F894DEBF4C
:103850000FBECDBFDF91CF910895EF92FF920F93EE
:103860001F93CF93DF9300D000D0CDB7DEB78C018C
:10387000BC01CE0101960E940919CE0101960E9459
:10388000A41BCE0101960E94431860EB72E0CE01AA
:1038900001960E94D118BE016F5F7F4FC8010E9440
:1038A00079237C01CE0101960E944318F7FE7BC06C
:1038B00066EA72E0CE0101960E94D118BE016F5FE8
:1038C0007F4FC8010E9479237C01CE0101960E949E
:1038D0004318F7FC05C0109232041092310463C003
:1038E0006CE972E0CE0101960E94D118BE016F5FB3
:1038F0007F4FC8010E9479237C01CE0101960E946E
:103900004318F7FC1FC061E085E20E94542161E08A
:1039100083E20E94542161E084E20E94542161E02C
:1039200081E20E94542160E972E0CE0101960E947A
:10393000D118CE0101960E94A41BCE0101960E94CF
:10394000431831C065E872E0CE0101960E94D1189B
:10395000BE016F5F7F4FC8010E9479238C01CE01A9
:1039600001960E94431817FD1EC065E772E0CE0164
:1039700001960E94D118CE0101960E94A41BCE018F
:1039800001960E94431860E085E20E94542160E0A5
:1039900083E20E94542160E084E20E94542160E0AE
:1039A00081E20E94542126960FB6F894DEBF0FBE26
:1039B000CDBFDF91CF911F910F91FF90EF900895B0
:1039C0000E942A303FB7F8948091380490913904CE
:1039D000A0913A04B0913B0426B5A89B05C02F3FA7
:1039E00019F00196A11DB11D3FBFBA2FA92F982F25
:1039F0008827820F911DA11DB11DBC01CD0142E0A0
:103A0000660F771F881F991F4A95D1F708952FB722
:103A1000F89460913404709135048091360490914B
:103A200037042FBF08951F920F920FB60F921124E3
:103A30002F933F938F939F93AF93BF9380913404C1
:103A400090913504A0913604B0913704309133043D
:103A500023E0230F2D3720F40196A11DB11D05C0D1
:103A600026E8230F0296A11DB11D209333048093F5
:103A7000340490933504A0933604B09337048091B6
:103A8000380490913904A0913A04B0913B04019616
:103A9000A11DB11D8093380490933904A0933A047A
:103AA000B0933B04BF91AF919F918F913F912F9124
:103AB0000F900FBE0F901F901895FC01808191818F
:103AC000009711F00C94C73160E070E0CB010895CD
:103AD000CF93DF93EC016115710561F0FB0101905B
:103AE0000020E9F73197AF01461B570B0E94B4172E
:103AF000811103C0CE010E94E217CE01DF91CF9168
:103B00000895CF93DF93EC01FB01448155816081DF
:103B100071810E94B417811103C0CE010E94E21787
:103B2000CE01DF91CF9108956115710551F0FB0130
:103B300001900020E9F73197AF01461B570B0C9419
:103B4000B41780E0089520917E0430917F042817F7
:103B5000390771F490917D0480917C04981741F0AD
:103B6000E0917D04F0E0E45CFB4F808190E00895FB
:103B70008FEF9FEF089508951F93CF93DF93DC019C
:103B80005C962D913C915D972115310539F481E0CA
:103B900090E013969C938E9312973DC05196ED91B1
:103BA000FC91529750969C915097892F80951FB702
:103BB0005E964C915E9741FB772770F941FD6095C9
:103BC000F8944081772311F0492B01C048234083AA
:103BD000E9012197F1F748E0508160FF02C0592BBD
:103BE00001C058235083E9012197F1F766954150B0
:103BF00099F7772321F090818923808303C0808106
:103C0000982B90831FBF5C968D919C915D97019737
:103C1000F1F721E030E0C901DF91CF911F910895C4
:103C200020917E0430917F042817390771F4809128
:103C30007C0420917D0490E0805C9F4F821B910961
:103C400060E470E00E94492C089580E090E00895BF
:103C500020917E0430917F0428173907B9F49091A0
:103C60007D0480917C04981789F0E0917D04F0E058
:103C7000E45CFB4F808120917D0430E02F5F3F4F5B
:103C80002F73332720937D0490E008958FEF9FEFEB
:103C9000089590E0FC013197E231F10508F04EC043
:103CA0008827EC57FF4F8F4F0C947C2C809180001D
:103CB0008F7703C0809180008F7D8093800008956E
:103CC00080918000877FF9CF84B58F7702C084B55B
:103CD0008F7D84BD08958091B0008F7703C080915F
:103CE000B0008F7D8093B0000895809190008F7711
:103CF00007C0809190008F7D03C080919000877FE6
:103D00008093900008958091A0008F7707C08091E4
:103D1000A0008F7D03C08091A000877F8093A000CA
:103D20000895809120018F7707C0809120018F7DB9
:103D300003C080912001877F8093200108958F9296
:103D40009F92AF92BF92CF92DF92EF92FF920F932A
:103D50001F93CF93DF93CDB7DEB762970FB6F8947A
:103D6000DEBF0FBECDBF6C018B0184E2DB011D9273
:103D70008A95E9F784E290E0A0E0B0E0FB0180835F
:103D80009183A283B383F60184819581A681B78153
:103D9000FB0184839583A683B78383E090E0A0E052
:103DA000B0E080879187A287B3870E94071DD80162
:103DB00050966D937D938D939C935397FE0131960E
:103DC0008CE0DF011D928A95E9F77E01BDE0EB0EE4
:103DD000F11C86E0F70111928A95E9F7D601139656
:103DE0008C9191E0909380048093A20410928104BE
:103DF0001092A3046AE18BEE94E00E942E1181E000
:103E00000E94D72366E0F60183810E9493231092DB
:103E1000E7038093E60336E0D32EDE0C8BEE94E0CE
:103E20000E94E210D7018D937D01DA12F7CF6E85E3
:103E300070E0762F66278D85682B072E000C880B87
:103E4000990B0E94B93620E030E040E85DE30E9423
:103E500018374B015C01688970E0762F66278F85E3
:103E6000682B072E000C880B990B0E94B93620E0B6
:103E700030E040E85DE30E9418376B017C018A89DD
:103E800090E0982F88272989822BBC01990F880BF5
:103E9000990B0E94B93620E030E040E85DE30E94D3
:103EA0001837F801848A958AA68AB78AC08ED18E7F
:103EB000E28EF38E648F758F868F978F81E0629686
:103EC0000FB6F894DEBF0FBECDBFDF91CF911F912B
:103ED0000F91FF90EF90DF90CF90BF90AF909F90A9
:103EE0008F9008950F931F93CF93DF938C01EB0175
:103EF00088E2FB0111928A95E9F74BE050E06FED03
:103F000073E0CE010E9453301B8681E090E0A0E078
:103F1000B0E08C879D87AE87BF87F801848195814B
:103F2000A681B781888B998BAA8BBB8B83E090E0AD
:103F3000A0E0B0E08C8B9D8BAE8BBF8B1CA21DA232
:103F40001EA21FA2188E198E1A8E1B8E1C8E1D8EFD
:103F50001E8E1F8E8AE097EDA3E2BCE388A399A38F
:103F6000AAA3BBA3DF91CF911F910F910895FC01EC
:103F700044815581BC01625F7F4F0C9461221F9286
:103F80000F920FB60F9211240BB60F922F933F93FF
:103F90004F935F936F937F938F939F93AF93BF9351
:103FA000EF93FF93E0917E04F0917F04309709F442
:103FB00051C0968DA685B785858591FF04C09C91DB
:103FC000892329F447C09C91892309F043C0A38920
:103FD000B4899C918589809589238C93868997895A
:103FE0000197F1F7608D718DA685B785558538E00D
:103FF00020E0CB010197F1F7822F90E0959587950E
:10400000282F4C91452309F02068315091F7868D77
:1040100081FD209580917C0490E001968F73992713
:1040200030917D04381749F0A0917C04B0E0A45C85
:10403000BB4F2C9380937C0403C0868D8160868F58
:10404000828D938D0197F1F7A389B4899C9185891D
:10405000892B8C93FF91EF91BF91AF919F918F919D
:104060007F916F915F914F913F912F910F900BBE78
:104070000F900FBE0F901F901895E0917E04F09165
:104080007F04E817F90769F4A389B4899C918589AD
:10409000809589238C9310927F0410927E0481E096
:1040A000089580E008951F93CF93DF93EC019A0168
:1040B000AB011B8E1A8E198E188E1F8A1E8A60E025
:1040C00079E08DE390E00E945D2CF9012430310508
:1040D00018F0C901039702C081E090E09D8F8C8F9A
:1040E0008C8516EF180F143048F09EEC980F943022
:1040F00028F092EC980F983008F080C0B9017695BE
:1041000067956431710518F06351710902C061E06F
:1041100070E07F8B6E8B369720F0B9016550710986
:1041200002C061E070E0798F688FB901660F771F78
:10413000260F371F36952795369527952D30310553
:1041400018F02C50310902C021E030E03B8F2A8F5B
:10415000143060F09EEC980F943040F092EC980F81
:10416000983008F46CC0A0E0B0E06BC0A8E6B0E006
:10417000E8E6F0E09081143018F08E53883010F0AB
:1041800081E001C084E0892B8C938C8596EF980F99
:10419000943058F02EEC280F243038F022EC280F01
:1041A000283030F020E030E005C02BE630E002C0DF
:1041B0002DE630E03C8B2B8B943010F49AEF0BC043
:1041C000823381F0833381F0843381F092EC980F55
:1041D000983070F492EC980F81E001C0880F9A95A6
:1041E000EAF707C088E005C084E003C082E001C0B0
:1041F00081E08D8B8C8D9D8D0197F1F78A8D9B8D44
:10420000892B29F180917E0490917F048C179D0762
:10421000F1F0009711F00E943D208E8D8E7F8E8FE1
:1042200010927C0410927D04D0937F04C0937E048E
:10423000EB89FC8990818D89892B808308C0A8E651
:10424000B0E0983008F494CFE0E0F0E093CFDF9155
:10425000CF911F910895CF93DF93282F30E0F9017C
:10426000EF5DF94F8491F901EF51F94FD491F901C4
:10427000E556F94FC491CC2391F081110E94491E5B
:10428000EC2FF0E0EE0FFF1FEF57F94FA591B4911F
:10429000EC91ED2381E090E021F480E002C080E029
:1042A00090E0DF91CF9108951F93CF93DF93282F54
:1042B00030E0F901EF5DF94F8491F901EF51F94FC9
:1042C000D491F901E556F94FC491CC23C9F0162FCA
:1042D00081110E94491EEC2FF0E0EE0FFF1FE959FB
:1042E000F94FA591B4918FB7F894111105C09C9125
:1042F000ED2FE095E92302C0EC91ED2BEC938FBFFD
:10430000DF91CF911F910895CF93DF9390E0FC014F
:10431000EF51F94F2491FC01E556F94F8491882320
:1043200061F190E0880F991FFC01E95FF94FC59199
:10433000D491FC01E959F94FA591B491611109C0DB
:104340009FB7F8948881209582238883EC912E234F
:104350000BC0623061F49FB7F8943881822F80954A
:1043600083238883EC912E2B2C939FBF06C08FB79D
:10437000F894E8812E2B28838FBFDF91CF91089589
:104380008F929F92AF92BF92CF92DF92EF92FF9265
:104390006B017C010E94E21C4B015C01C114D10441
:1043A000E104F104F1F00E94E21CDC01CB01881968
:1043B0009909AA09BB09883E9340A105B10570F38C
:1043C00021E0C21AD108E108F10888EE880E83E0E6
:1043D000981EA11CB11CC114D104E104F10419F709
:1043E000DDCFFF90EF90DF90CF90BF90AF909F9088
:1043F0008F900895CF92DF92EF92FF920F931F93C9
:10440000CF93DF93EC016A017B01E889F98982E0AF
:1044100080834115514E61057105B1F060E079E08E
:104420008DE390E0A70196010E94E63789019A0189
:1044300001501109210931093695279517950795DE
:10444000980101151041A8F0E889F989108260E807
:1044500074E88EE190E0A70196010E94E637DA0148
:10446000C9010197A109B109B695A79597958795B7
:104470009C01EC85FD853083EE85FF852083188EB9
:10448000EC89FD8986E08083EA89FB8980818061EF
:104490008083EA89FB89808188608083EA89FB893F
:1044A000808180688083EA89FB8980818F7D808319
:1044B000DF91CF911F910F91FF90EF90DF90CF9000
:1044C0000895CF92DF92EF92FF920F931F93CF93B5
:1044D000DF937C016B018A01C0E0D0E0011511057A
:1044E00061F1D701ED91FC910480F581E02DC701C8
:1044F0001995892BC1F0D701ED91FC910680F781C8
:10450000E02DC70119958D3061F38A3019F4209799
:1045100041F32CC0F601EC0FFD1F80832196C034BF
:10452000D105F8F223C001501109C1F261E070E039
:1045300080E090E00E94C021D1CFF601EC0FFD1F7A
:104540001082F70185858823A1F0209791F0B601AC
:1045500087EF94E00E945219C034D10550F46EE107
:1045600073E087EF94E00E94521903C000E010E06E
:10457000B5CFCE01DF91CF911F910F91FF90EF90BA
:10458000DF90CF900895CF92DF92EF92FF920F933A
:104590001F93CF93DF936B01770FEE08FF08F7FEB1
:1045A0001BC0EC016DE20E9427198C01442755279E
:1045B000BA014C195D096E097F092AE0CE010E94FB
:1045C0006719800F911FDF91CF911F910F91FF907D
:1045D000EF90DF90CF9008952AE0B701A601DF9118
:1045E000CF911F910F91FF90EF90DF90CF900C949F
:1045F0006719EF92FF920F931F93E12CF12C00E0CB
:1046000010E020E040E050E0BC0181EA95E00E942B
:104610006D141F910F91FF90EF9008958091B8074E
:104620009091B907009781F0DC01ED91FC91048035
:10463000F581E02D1995892B11F480E00895809182
:10464000B8079091B90711C08091BA079091BB0744
:10465000DC01ED91FC910480F581E02D1995892B09
:1046600061F38091BA079091BB07DC01ED91FC9159
:104670000680F781E02D19958A3031F52091AC083C
:104680003091AD089091AE08F901E90FF11D10824B
:10469000B8E024333B0739F44CEB57E05093AD08B6
:1046A0004093AC0808C024E338E03093AD08209371
:1046B000AC082CEB37E030939505209394051092CD
:1046C000AE0891E090939605E091AC08F091AD08AA
:1046D0009091AE0821E0290F2093AE08E90FF11D5B
:1046E00080839091AE08983718F097E79093AE08C2
:1046F0000895CF93DF93FC0124813581232B71F042
:10470000FB01DC01CD91DC9160817181CE010E94C1
:104710006230009719F08C1B9D0B02C08FEF9FEF4A
:10472000DF91CF9108959091EA049111FCCF91E02F
:104730009093EA049093E9042FEF2093E8041092F9
:10474000E704260F2093E6049093E5049091E50496
:10475000880F892B8093E5048091E404813061F413
:104760001092E4048091E5048093BB008091BC002A
:1047700083FDF8CF85EC01C085EE8093BC0080916D
:10478000EA048130E1F38091E704861710F4609128
:10479000E704A4ECB4E024EA34E0F9018E2F821B94
:1047A000861718F48D918193F9CF862F0895382FAD
:1047B0002091A3049091A204213208F049C0809175
:1047C000EA048111FCCF42E04093EA043093E9040B
:1047D0003FEF3093E8041092E7042093E604A2E848
:1047E000B4E044EC54E0FA013E2F341B321718F4C5
:1047F0003D913193F9CF1092E5042091E504990F92
:10480000922B9093E5049091E404913061F410921E
:10481000E4049091E5049093BB009091BC0093FD5B
:10482000F8CF95EC01C095EE9093BC009091EA040E
:104830009230E1F39091E8049F3F79F08091E80491
:10484000803241F08091E804803331F084E005C08B
:1048500081E003C082E001C083E0109281041092E5
:10486000A3041092800408958BE995E00E944318F8
:1048700081EA95E00E94F81180E592E090930B06A2
:1048800080930A068AE096E00C943D20CF93DF9354
:10489000CDB7DEB7C055D1090FB6F894DEBF0FBE55
:1048A000CDBF789484B5826084BD84B5816084BDB9
:1048B00085B5826085BD85B5816085BD80916E00BE
:1048C000816080936E0010928100809181008260EF
:1048D000809381008091810081608093810080912C
:1048E00080008160809380008091B100846080931B
:1048F000B1008091B00081608093B0008091910000
:1049000082608093910080919100816080939100FA
:10491000809190008160809390008091A1008260DE
:104920008093A1008091A10081608093A10080917B
:10493000A00081608093A00080912101826080931B
:1049400021018091210181608093210180912001CA
:1049500081608093200180917A00846080937A0046
:1049600080917A00826080937A0080917A008160E1
:1049700080937A0080917A00806880937A00109208
:10498000C10061E083E20E94842161E081E20E9433
:10499000842161E085E20E94842161E084E20E943A
:1049A000842161E081E20E94842161E082E20E9430
:1049B000842161E08DE00E94842161E087E00E9413
:1049C000842161E088E00E94842161E085E00E940A
:1049D000842161E084E00E94842161E089E00E94FA
:1049E000842161E086E00E94842160E087E00E94EB
:1049F000542160E088E00E94542160E084E00E943D
:104A0000542160E089E00E94542160E081E30E942B
:104A1000842164EF71E080E090E00E94C02140E0DA
:104A200052EC61E070E087EF94E00E94FA2110926E
:104A3000E7031092E603109281041092A3041092EF
:104A4000EA0481E08093E9041092E40461E084E1E7
:104A50000E94542161E085E10E9454218091B900B7
:104A60008E7F8093B9008091B9008D7F8093B900CB
:104A700088E48093B80085E48093BC0080E090E0F7
:104A80000E943812803A51F480E090E00E94871230
:104A900060E28FE390E00E945D121BC068EE73E05D
:104AA00080E090E00E94C02180E090E00E943812F7
:104AB000803A51F36AEC75E0CE0101960E94D1185C
:104AC000CE0101960E94A41BCE0101960E944318BC
:104AD00038C080E090E00E943812803A39F06AE0F5
:104AE00070E080E090E00E94C021F3CF62E370E0CC
:104AF00080E090E00E94C02160E08EE390E00E94A0
:104B00005D126AE070E080E090E00E94C02160E009
:104B100087E090E00E945D1260E08FE390E00E94E9
:104B20005D126AE070E080E090E00E94C0218CE0BD
:104B300090E00E94871264E170E080E090E00E94C3
:104B4000C021BE016F5F7F4F89E296E00E94721F15
:104B500061E573E0CE0189960E941219CE01899613
:104B60000E94A41BCE0189960E94431860E373E063
:104B7000CE0189960E94D118CE0189960E94A41B6D
:104B8000CE0189960E944318BE016F5F7F4FCE0110
:104B900089960E941219CE0189960E94A41BCE010B
:104BA00089960E94431861E273E0CE0189960E94C3
:104BB000D118CE0189960E94A41BCE0189960E942D
:104BC00043186D857E858F8598892D961FAE1EAE04
:104BD0002D972F961FAE1EAE2F9761961FAE1EAE5D
:104BE00061972AE0AE01475D5F4F0E943F32BE01F0
:104BF000675D7F4FCE01855B9F4F0E941518CE01E8
:104C0000855B9F4F0E94A41BCE01855B9F4F0E9436
:104C1000431862E173E0CE0189960E94D118CE015B
:104C200089960E94A41BCE0189960E944318698927
:104C30007A898B899C892D961FAE1EAE2D972F9653
:104C40001FAE1EAE2F9761961FAE1EAE61972AE073
:104C5000AE01475D5F4F0E943F32BE01675D7F4FEF
:104C6000CE01855B9F4F0E941518CE01855B9F4F3B
:104C70000E94A41BCE01855B9F4F0E94431863E0F6
:104C800073E0CE0189960E94D118CE0189960E94C8
:104C9000A41BCE0189960E944318498D5A8D6B8DB5
:104CA0007C8D22E0CE0189960E944818CE0189961B
:104CB0000E94A41BCE0189960E94431866E773E008
:104CC000CE0189960E941219CE0189960E94A41BDA
:104CD000CE0189960E94431864EF72E0CE01899656
:104CE0000E94D118CE0189960E94A41BCE018996FC
:104CF0000E9443184D8D5E8D6F8D78A122E0CE010C
:104D000089960E944818CE0189960E94A41BCE0164
:104D100089960E94431866E773E0CE0189960E9447
:104D20001219CE0189960E94A41BCE0189960E9479
:104D3000431865EE72E0CE0189960E94D118CE012B
:104D400089960E94A41BCE0189960E94431849A10E
:104D50005AA16BA17CA122E0CE0189960E9448183D
:104D6000CE0189960E94A41BCE0189960E94431809
:104D700066E773E0CE0189960E941219CE018996EA
:104D80000E94A41BCE0189960E94431860EC72E039
:104D9000CE0189960E94D118CE0189960E94A41B4B
:104DA000CE0189960E9443186FEB72E0CE0189967E
:104DB0000E94D118CE0189960E94A41BCE0189962B
:104DC0000E94431860E087E090E00E945D1289E352
:104DD00090E00E943812E82E86E390E00E9438129C
:104DE000F82E8AE390E00E943812182F68EC70E0E9
:104DF00080E090E00E94C02166E773E0CE0101965A
:104E00000E94D118CE0101960E94A41BCE010196EA
:104E10000E94431864E673E0CE0101960E94D11807
:104E2000CE0101960E94A41BCE0101960E94431858
:104E30004AE06E2DCE0101960E94A418CE01019683
:104E40000E94A41BCE0101960E94431862E573E004
:104E5000CE0101960E94D118CE0101960E94A41B9A
:104E6000CE0101960E9443184AE06F2DCE010196B3
:104E70000E94A418CE0101960E94A41BCE010196A7
:104E80000E94431860E473E0CE0101960E94D1189D
:104E9000CE0101960E94A41BCE0101960E944318E8
:104EA0004AE0612FCE0101960E94A418CE0101961E
:104EB0000E94A41BCE0101960E9443186FE373E089
:104EC000CE0101960E94D118CE0101960E94A41B2A
:104ED000CE0101960E944318E0903106F090320610
:104EE00080E090E00E94871269E170E080E090E04D
:104EF0000E94C02160E087E090E00E945D1260E8BF
:104F00008FE390E00E945D126AE070E080E090E044
:104F10000E94C021C7010E94871264E170E080E016
:104F200090E00E94C02180913104909132041816C3
:104F3000190654F569E975E0CE0101960E94D11871
:104F4000CE0101960E94A41BCE0101960E94431837
:104F500068E675E0CE0101960E94D118CE01019657
:104F60000E94A41BCE0101960E94431861E475E0E3
:104F7000CE0101960E94D118CE0101960E94A41B79
:104F8000CE0101960E94431881E08093AE051092F5
:104F900009068091FF0587FD0EC061E00E94842113
:104FA00061E08091FF050E94542161E070E080E0A3
:104FB00090E00E94C021809106069091070640E88B
:104FC00055E260E070E0009719F00E94FA2106C0F7
:104FD00080910406909105060E945320809100065E
:104FE000181644F461E00E94842161E0809100067B
:104FF0000E9454218091A5059091A605A091A70536
:10500000B091A805E0910206F09103068483958390
:10501000A683B78315E08BE793E00E94F922811104
:1050200022C01150C1F762E370E080E090E00E947E
:10503000C021E091A105F091A2050484F585E02D41
:1050400061E081EA95E0199562E370E080E090E02C
:105050000E94C02116E01150B1F187E793E00E9451
:10506000F9228823C1F30E94071D6093F105709314
:10507000F2058093F3059093F40568EE73E080E009
:1050800090E00E94C021E091A105F091A205028468
:10509000F385E02D81EA95E0199580913104909196
:1050A0003204181619062CF565EF74E0CE0101964E
:1050B0000E94D118CE0101960E94A41BCE01019638
:1050C0000E94431816C08091310490913204181642
:1050D000190674F469EF74E0CE0101960E94D118AC
:1050E000CE0101960E94A41BCE0101960E94431896
:1050F000FFCF80E093E09AA789A719821A821B82CA
:105100001C82CE0101967C018E01075D1F4F21E0BC
:1051100040E050E06FE773E081EA95E00E946D1493
:10512000809131049091320402975CF06AED74E052
:10513000C7010E94D118C7010E94A41BC7010E9489
:1051400043181091AD05F090AE051092AE0568E9D8
:1051500073E087EF94E00E94B01911110BC0E09149
:10516000A105F091A2050484F585E02D61E081EAB6
:1051700095E0199564E973E081EA95E00E94B01921
:1051800081EA95E00E94B71F892BB9F065E173E0D1
:105190008FEA95E00E944330892B79F068E173E053
:1051A0008FEA95E00E944330892B39F06FEA75E071
:1051B00087EF94E00E94C419E3CF11110BC0E09176
:1051C000A105F091A2050484F585E02D60E081EA57
:1051D00095E0199563E873E087EF94E00E94B019B9
:1051E000F092AE05809131049091320418161906A0
:1051F000E4F46DE974E0CE0101960E94D118CE016D
:1052000001960E94A41BCE0101960E94431862E7FA
:1052100074E0CE0101960E94D118CE0101960E9441
:10522000A41BCE0101960E9443181092AE058091F6
:105230003104909132041816190674F463E574E091
:10524000CE0101960E94D118CE0101960E94A41BA6
:10525000CE0101960E9443181091AD0511110BC0AB
:10526000E091A105F091A2050484F585E02D61E0AF
:1052700081EA95E0199569EA73E081EA95E00E9478
:10528000B01981EA95E00E94B71F6BE773E08FEADF
:1052900095E00E9443307C0181EA95E00E941C1455
:1052A00011110BC0E091A105F091A2050484F585D0
:1052B000E02D60E081EA95E01995F7FC1DC0809132
:1052C0003104909132041816190674F467E374E0FF
:1052D000CE0101960E94D118CE0101960E94A41B16
:1052E000CE0101960E94431885E294E00E94F922C3
:1052F00087E094E00E94F9226FEE73E0CE01019600
:105300000E94D118CE0101960E94A41BCE010196E5
:105310000E94431860E081EA95E00E94D9158091CF
:105320003104909132041816190674F460ED73E09C
:10533000CE0101960E94D118CE0101960E94A41BB5
:10534000CE0101960E9443186FEA73E087EF94E064
:105350000E94B0198091B8079091B90740E855E2D2
:1053600060E070E0009719F00E94532006C0809121
:10537000BA079091BB070E94FA216AE070E080E0D2
:1053800090E00E94C02181E893E00E947A1283EBB2
:1053900093E00E947A1284EC93E00E947A128FEAE2
:1053A00087BD80916E00826080936E0081E0809363
:1053B000300468EE73E080E090E00E94C02163ED6D
:1053C00073E083E396E00E94C4190E9464040E9483
:1053D0005617FBCF8F929F92AF92BF92CF92DF92E0
:1053E000EF92FF920F931F93CF93DF931092EE04EF
:1053F0001092ED0438EEC32E33E0D32EE12CF12CC5
:10540000C092EF04D092F004E092F104F092F20422
:105410008AE292E09093EC048093EB041092D3061E
:105420001092D206C092D406D092D506E092D6064B
:10543000F092D7068CE792E09093D1068093D00645
:10544000CDECD0E0D093DD06C093DC06ACECB0E050
:10545000B093DF06A093DE06E8ECF0E0F093E106FF
:10546000E093E00669EC70E07093E3066093E20677
:105470004AEC50E05093E5064093E4062EEC30E011
:105480003093E7062093E6061092E9061092EA06AA
:105490001092EB061092EC061092FA041092F904A6
:1054A000C092FB04D092FC04E092FD04F092FE0452
:1054B0009093F8048093F70405EC10E01093040532
:1054C0000093030504EC10E0109306050093050516
:1054D00000EC10E0109308050093070501EC10E0C4
:1054E00010930A050093090502EC10E010930C05D7
:1054F00000930B0506EC10E010930E0500930D05CC
:1055000010921005109211051092120510921305B9
:105510001092B9071092B807109296051092B7072B
:105520001092AE0804E318E01093AD080093AC08A5
:105530000CEB17E010939505009394051092AA07C1
:105540001092A907109272071092710710927007BB
:1055500010926F0710926E0710926D071092A707B6
:105560001092A6071092A5071092A8071092740730
:10557000109273071092A1071092A2071092A3072E
:105580001092A40710929D0710929E0710929F07F9
:105590001092A0071092990710929A0710929B07F9
:1055A00010929C07109295071092960710929707F9
:1055B00010929807109291071092920710929307F9
:1055C0001092940710928D0710928E0710928F07F9
:1055D000109290071092790710927A0710927B0729
:1055E00010927C0710927507109276071092770739
:1055F0001092780700ED16E01093BB070093BA07EE
:105600001092360610923506C0923706D0923806B0
:10561000E0923906F0923A068090D8069090D9062A
:10562000A090DA06B090DB0680923B0690923C0692
:10563000A0923D06B0923E069093340680933306C6
:10564000D0934006C0933F06B0934206A093410614
:10565000F0934406E0934306709346066093450634
:10566000509348064093470630934A0620934906D4
:105670008091E80680934B068091E90680934C0662
:105680008091EA0680934D068091EB0680934E064A
:105690008091EC0680934F0680E4EDEEF6E0A0E505
:1056A000B6E001900D928A95E1F780E4EDE2F7E033
:1056B000A0E9B6E001900D928A95E1F780E692E0CC
:1056C00090932A068093290687E390E0A0E0B0E05B
:1056D00080932D0690932E06A0932F06B09330064C
:1056E00088E280932C0610920D0610920C06C09250
:1056F0000E06D0920F06E0921006F092110680E599
:1057000092E090930B0680930A0610922106109265
:10571000200610922306109222061092250610925F
:1057200024061092270610922606609128066E7FA6
:105730006D7F609328066695617081E0682782E33B
:105740000E94542161E082E30E948421E3E1F7E0BA
:10575000E491E0931A06EDECF6E0E491F0E0EE0F50
:10576000FF1FE959F94F8591949190931C068093FE
:105770001B0660E083E30E9484218091280681FD5E
:1057800004C061E083E30E9454218AE096E023E3B1
:1057900020931606E4E1F7E0E491E0931706EEECBF
:1057A000F6E0E491F0E0EE0FFF1FEF57F94F25917F
:1057B000349130931906209318061092A405109284
:1057C000A30521E02093AD051092AE054AEF50E00D
:1057D00060E070E04093A5055093A6056093A7058F
:1057E0007093A8051092F1051092F2051092F3053E
:1057F0001092F4051092F6051092F5051092F80536
:105800001092F7051092FA051092F9051092FC0516
:105810001092FB051092FE051092FD052AE332E07E
:105820003093A2052093A10525E32093FF0524E3EF
:105830002093000620E32093010622E02093F00548
:1058400010920706109206069093050680930406B0
:10585000909303068093020660E273E08BE995E083
:105860000E9412190E94071D609397057093980576
:105870008093990590939A05DF91CF911F910F9195
:10588000FF90EF90DF90CF90BF90AF909F908F9060
:10589000089597FB072E16F4009407D077FD09D0E2
:1058A0000E94842C07FC05D03EF4909581959F4F73
:1058B0000895709561957F4F0895052E97FB1EF40E
:1058C00000940E94742C57FD07D00E94E63707FC15
:1058D00003D04EF40C94742C50954095309521953E
:1058E0003F4F4F4F5F4F089590958095709561950C
:1058F0007F4F8F4F9F4F0895EE0FFF1F881F8BBF65
:105900000790F691E02D1994AA1BBB1B51E107C02B
:10591000AA1FBB1FA617B70710F0A61BB70B881F3F
:10592000991F5A95A9F780959095BC01CD010895CE
:105930005058BB27AA270E94B02C0C949C370E9479
:105940008E3738F00E94953720F039F49F3F19F4D4
:1059500026F40C948B370EF4E095E7FB0C94853716
:10596000E92F0E94AD3758F3BA176207730784070F
:10597000950720F079F4A6F50C94CF370EF4E09556
:105980000B2EBA2FA02D0B01B90190010C01CA01F9
:10599000A0011124FF27591B99F0593F50F4503EA4
:1059A00068F11A16F040A22F232F342F4427585F96
:1059B000F3CF469537952795A795F0405395C9F7AE
:1059C0007EF41F16BA0B620B730B840BBAF0915066
:1059D000A1F0FF0FBB1F661F771F881FC2F70EC005
:1059E000BA0F621F731F841F48F4879577956795D8
:1059F000B795F7959E3F08F0B0CF9395880F08F0C4
:105A00009927EE0F9795879508950E94192D0C946C
:105A10009C370E94953758F00E948E3740F029F449
:105A20005F3F29F00C94853751110C94D0370C94BA
:105A30008B370E94AD3768F39923B1F3552391F367
:105A4000951B550BBB27AA2762177307840738F0ED
:105A50009F5F5F4F220F331F441FAA1FA9F335D04A
:105A60000E2E3AF0E0E832D091505040E695001CFE
:105A7000CAF72BD0FE2F29D0660F771F881FBB1FB8
:105A8000261737074807AB07B0E809F0BB0B802D96
:105A9000BF01FF2793585F4F3AF09E3F510578F0C2
:105AA0000C9485370C94D0375F3FE4F3983ED4F3E1
:105AB000869577956795B795F7959F5FC9F7880F96
:105AC000911D9695879597F90895E1E0660F771FE8
:105AD000881FBB1F621773078407BA0720F0621B79
